:0300000002029D5C
:0C029D00787FE4F6D8FD7581240202E4AD
:1005C300E4FDFCC3ED9FEC9E5015E4FAFB0BBB006E
:0F05D300010AEB647B4A70F50DBD00010C80E45A
:0105E20022F6
:0B06070053706565643A0072706D006E
:1005E300C290C2918F807F017E001205C3D2A5C243
:0205F300A5223F
:1005F500D290C2918F807F017E001205C3D2A5C221
:02060500A5222C
:0604DA008B1C8A1D891E27
:1004E000E4F51FF5201205E3E4F51FF520AB1CAA87
:1004F0001DA91E852082851F831201EBFF60141247
:1005000005F57F017E001205C30520E52070DE059C
:030510001F80DA6F
:0105130022C5
:100549007F381205E37F0C1205E37F061205E37F6E
:10055900011205E37BFF7A0679077F807E0012048A
:0E056900DA7BFF7A06790E7F897E000204DAC3
:1005770002100000020E000002080000040A3030DA
:02058700300042
:0300030002000EEA
:0D000E00C0E00511E51170020510D0E032D0
:03001B00020329B4
:10032900C0E0C0F0C083C082C0D075D000C000C09A
:1003390001C002C003C004C005C006C007C28E7553
:100349008D3C758BAF0509E50970020508641445F4
:10035900087023F508F509AC10AD111201317B9A2B
:100369007A997939784012002612016A8E0E8F0F18
:10037900751000751100D28ED007D006D005D004B3
:10038900D003D002D001D000D0D0D082D083D0F019
:03039900D0E0327F
:06040B008B1C8A1D891EF6
:10041100751F007520028E218F22751F0075200225
:10042100AE21AF227C007D0A12023AED2430AB1CD2
:10043100AA1DA91E852082851F83120218AE21AF35
:10044100227C007D0A12023A8E218F22E52015209E
:0E0451007002151FE520B4FFC7E51FB4FFC2FF
:01045F00227A
:10049F00C2AFD2A9D2ABD2ADD2A8D2AC75891275E8
:1004AF00C834759850E4F587758CCE758ACE758DE6
:1004BF003C758BAF75CDFF75CCDC75CBFF75CADC8A
:0B04CF00D28CD28ED288D2B9D2AF22DC
:1004600012061212054912049F7B007A00790AAF26
:100470000FAE0E12040B7B007A007912AF1BAE1A7E
:1004800012040B7B007A00790A7F867E001204DA60
:0F0490007B007A0079127FC07E001204DA80CAE6
:1005890002160064021A00320218003204123030D6
:0205990030250B
:07061200D2A7C2A6D2A42268
:03000B00020514D7
:10051400C0E0E519151970021518E519451870079A
:10052400C2A4F518751901E517151770021516E51B
:10053400174516700DD2A4F516751764851A18851B
:050544001B19D0E0329C
:04059B000223000037
:0300230002039C39
:10039C00C0E0C0F0C083C082C0D075D000C000C027
:1003AC0001C002C003C004C005C006C00730982FAE
:1003BC00C298AF997523008F24E52445237006B2AB
:1003CC00A7B2A6801AAC23AD24E41201317B8F7A3C
:1003DC00C27995783F12002612016A8E1A8F1B3053
:1003EC009902C299D007D006D005D004D003D00210
:0F03FC00D001D000D0D0D082D083D0F0D0E0326A
:1005A000E5244523601CAC23AD24E41201317B9A81
:1005B0007A997999783F12002612016A8E1A8F1B58
:0305C00080DE22B8
:10002600EC4D6011E8497017ED33EC3304600DE4D4
:10003600FCFFFEFD22E933E8330470F80201D61214
:1000460001A158046009E4CC248150062850090215
:1000560001E02840030201DDC0E0EB4A7044B980AC
:1000660006D0E0FB0201CCEF4E701CBD8008EBFF12
:10007600EAFEE9FD80EBE98DF0A4FEE5F002010F52
:10008600E9CDF9EAFEEBFFEF89F0A4FCE5F0CE89B5
:10009600F0A42EFFE435F0CD89F0A42DFEE435F072
:1000A6008067EF4E7005BD80D780C3EF8BF0A4ACA0
:1000B600F0EE8BF0A42CFCE435F0F8EF8AF0A42CDB
:1000C600E5F038FCE433CB8DF0A42CFCE5F03BF8EE
:1000D600EE8AF0A42CFCE5F038F8E433CF89F0A4DE
:1000E6002CFCE5F038CF3400CE89F0A42FFFE5F0E4
:1000F6003EFEE433C98DF0A42EFEE5F039CD8AF03C
:10010600A42FFFE5F03EFEE43DFD33D0E0FB5007B3
:100116000BBB000F0201E0EC2CFCEF33FFEE33FECD
:06012600ED33FD0201B8FB
:10012C0075F020800E75F010800575F0087D007E4E
:10013C00007F003392D530D50312028FEC33401080
:10014C00EF33FFEE33FEED33FDEC33FCD5F0ED2257
:0E015C00E5F0247EA2D513CC92E7CDCEFF2293
:10016A00EDD2E7CD33EC3392D524814006E4FFFE8D
:10017A00FDFC22FCE4CFCECDCC24E0501174FF80EC
:10018A00EDC3CC13CCCD13CDCE13CECF13CF047089
:07019A00F030D5DE02028FF8
:1001A100E9D2E7C933E833F892D5EDD2E7CD33ECA4
:0701B10033FC5002B2D5221D
:1001B800EC30E7100FBF000C0EBE00080DBD0004A8
:1001C8000BEB6014A2D5EB13FCED92E7FD2274FF54
:1001D800FCFDFEFF22E480F8A2D574FF13FC7D80AD
:0301E800E480EFC1
:1002A900020460E493A3F8E493A34003F68001F207
:1002B90008DFF48029E493A3F85407240CC8C33356
:1002C900C4540F4420C8834004F456800146F6DF25
:1002D900E4800B0102040810204080900577E47E39
:1002E900019360BCA3FF543F30E509541FFEE4931A
:1002F900A360010ECF54C025E060A840B8E493A3E1
:10030900FAE493A3F8E493A3C8C582C8CAC583CA0B
:10031900F0A3C8C582C8CAC583CADFE9DEE780BEC3
:01059F00005B
:1001EB00BB010CE58229F582E5833AF583E02250C9
:1001FB0006E92582F8E622BBFE06E92582F8E22213
:0D020B00E58229F582E5833AF583E493222C
:10021800F8BB010DE58229F582E5833AF583E8F01C
:10022800225006E92582C8F622BBFE05E92582C8C8
:02023800F222B0
:10023A00BC000BBE0029EF8DF084FFADF022E4CCA8
:10024A00F875F008EF2FFFEE33FEEC33FCEE9DEC71
:10025A00984005FCEE9DFE0FD5F0E9E4CEFD22EDB7
:10026A00F8F5F0EE8420D21CFEADF075F008EF2F01
:10027A00FFED33FD4007985006D5F0F222C398FDF2
:05028A000FD5F0EA228F
:0E028F00C3E49FFFE49EFEE49DFDE49CFC2280
:00000001FF
